:020000040000FA
:100000000330A0000230A1000130A2000230200223
:1000100002302102023022020130023C0230023C56
:100020000330023C0301A001A00A200AA10321031E
:1000300000001230A200220A000000000000A0010F
:100040002014A0142015A0152016A0162017A01704
:1000500000002010A0102011A0112012A0122013C7
:10006000A013000000000000831603130030860078
:10007000831203138601860A40204020860A3C280A
:0A008000FF30A200A20B4228080086
:02400E00183F59
:00000001FF
