:020000040000FA
:020000001328C3
:08000800F000030EF100831269
:1000100003131A089900A0006A208C12710E830045
:10002000F00E700E090007309F0083160313F030A6
:1000300085000230860083120313903098008316E7
:10004000031320309800FF309900831203134720D8
:100050008030A00085204F30A0006A204B30A000E7
:100060006A20C0308B008316031320308C0083126B
:10007000031318191A08981C392818121816392849
:100080008030A400A30B4228A40B422808000610CD
:100090004020402040204020402040200130A0004F
:1000A00085204020402040200F30A00085200130D6
:1000B000A00085203830A0008520A2010800060895
:1000C0000F39A1002008F0392104860020080F39DB
:1000D0008500080086155F20061440200610402089
:1000E000A20A10302202031D7928C030A00085200A
:1000F000080020302202031D08000130A0008520E6
:100100008030A0008520A201080086115F2006141F
:08011000402006104020080009
:02400E00023F6F
:00000001FF
