:020000040000FA
:1000000000008A110A128E2983120313BF01831282
:10001000031387118316031307168312031307169E
:1000200083120313C001831203134008803E783EFD
:1000300003185028831203138715D8208312031343
:10004000C10183120313071E282883120313C10A58
:10005000831203134008073CC2004108C300420852
:10006000C21B3C28003C0319452883120313C30D0F
:10007000013E031C35284528031083120313C31BBC
:100080000314C30C013E031C3C28831203134308D2
:10009000BF0483120313871183120313C00A1328AA
:1000A000831603130712831203130712D820831237
:1000B00003138715D82083120313871183120313A8
:1000C0003F08080083120313BA0083120313871139
:1000D00083120313BB01831203133B08803E783E57
:1000E0000318B0283B08BC00BD01BC1BBD033C0885
:1000F000073CBC003D08031C3D0A003CBD003A081B
:10010000BE003C08BC1B8E28003C031995288312B6
:100110000313BE0C013E031C87289528031083128D
:100120000313BE0D013E031C8F28013083120313FD
:100130003E05BC003C0C0318A028831203130712D1
:10014000031CA528831203130716831203138715B4
:10015000D82083120313871183120313BB0A6B2861
:10016000831203130716D820831203138715D82090
:1001700083120313871108008312031387150712D4
:10018000D820831203130716D82008008312031304
:1001900087150716D820831203130712D8200800EA
:1001A000831603130712831203138715071608001B
:1001B0000000000000000000080083120313A500E7
:1001C0007F08A4007E08A600A700A801A6010130B0
:1001D0002505A900A600AA00AB01AB012408AA00CE
:1001E000A900AA018A110A12C6208A110A128312D2
:1001F0000313260803190329A2308A110A12622068
:100200008A110A120929A0308A110A1262208A1161
:100210000A128312031329088A110A1262208A1112
:100220000A12831203132708AB008A110A126220F4
:100230008A110A128A110A12BC208A110A12831228
:100240000313AA0A2408FF0025083A218312031386
:10025000AB00AC00AD012C082706031D33292D0887
:100260002806031939290A30831203132A02031CB2
:10027000F228080083120313A1007F08A000A20146
:1002800001302105A300A200A1012008A3008A11CA
:100290000A12C6208A110A128312031322080319B4
:1002A0005829A2308A110A1262208A110A125E2984
:1002B000A0308A110A1262208A110A1283120313D3
:1002C00023088A110A1262208A110A128A110A125C
:1002D000C6208A110A1283120313220803197729F0
:1002E000A3308A110A1262208A110A127D29A130D4
:1002F0008A110A1262208A110A128A110A12042033
:100300008A110A1283120313A0008A110A12BC2058
:100310008A110A1283120313200808007E30FE009F
:100320000230FF0080308A110A1235228A110A1227
:1003300083120313AF007F08AE008030B00002309C
:10034000B100831203132E08B2002F08B300FF3050
:10035000AE07031CAF033208330403191E2A04300E
:100360003007B200B301B30D3108B3073208FE0005
:100370003308FF0080308A110A1235228A110A12CE
:1003800083120313B5007F08B4003008FE00310863
:10039000FF0080308A110A1235228A110A12831254
:1003A0000313B700B3007F08B600B2000230300775
:1003B000B200B301B30D3108B3073208FE003308B1
:1003C000FF0080308A110A1235228A110A12831224
:1003D0000313B300B9007F08B200B80083120313FF
:1003E0003408B8003508B900FF30B407031CB50362
:1003F000380839040319172A3608FE003708FF00A9
:1004000080308A110A1222228A110A1283120313DF
:10041000B80032088400831333188317380880002B
:10042000B60A0319B70AB20A0319B30AEE2906304D
:1004300083120313B0070318B10AA1298A110A1203
:10044000562A0800003A0319292A803A0319302A4B
:1004500000347E08840083137F1883170008080087
:100460007F088A007E0882000800003A03193D2AAE
:10047000803A0319472AFF0100347E088400831361
:100480007F1883170008FF00840A000808008A11FB
:100490000A123022FD00FE0FFF03FF0A8A110A1222
:1004A0003022FC007D08FF007C080800063083161F
:1004B00003139F00FF30850086010130870088010B
:1004C000FC3089008A110A12D0208A110A12A53044
:1004D000FE004530FF0001308A110A12DD208A112A
:1004E0000A124530FF0001308A110A123A218A119E
:1004F0000A128312031386007C2A08000134003498
:0E0500008634023444340034013400340034B4
:02400E003A3F37
:00000001FF
