:020000040000FA
:0400000000000528CF
:06000A00F130FE000030A1
:10001000FF00803000000000AC20000000008312D0
:100020000317A1007F08A000F330A2000030A30056
:10003000831203172008A4002108A500FF30A007A1
:10004000031CA10324082504031995280430220762
:10005000A400A501A50D2308A5072408FE00250876
:10006000FF00803000000000AC2000000000831280
:100070000317A7007F08A6002208FE002308FF0040
:10008000803000000000AC20000000008312031745
:10009000A900A5007F08A800A40002302207A40040
:1000A000A501A50D2308A5072408FE002508FF00CB
:1000B000803000000000AC20000000008312031715
:1000C000A500AB007F08A400AA008312031726082E
:1000D000AA002708AB00FF30A607031CA7032A08C5
:1000E0002B0403198E282808FE002908FF00803001
:1000F0000000000099200000000083120317AA00EE
:10010000240884008313251883172A088000A80A6E
:100110000319A90AA40A0319A50A6528063083123F
:100120000317A2070318A30A182800000000CD280F
:100130000800003A0319A028803A0319A7280034C0
:100140007E08840083137F188317000808007F0847
:100150008A007E0882000800003A0319B428803A19
:100160000319BE28FF0100347E08840083137F1822
:1001700083170008FF00840A000808000000000040
:10018000A720FD00FE0FFF03FF0A00000000A720CC
:10019000FC007D08FF007C080800FF308316031375
:1001A00085008601831203172E088312031386002D
:1001B00083120317AE0A83120317AC01AD0114308A
:1001C000831203172D02031DE72800302C020318A9
:1001D000D228052183120317AC0A0319AD0ADF28C0
:1001E000080003340034073401342E340134013460
:1001F0000034083401342F3401340134003409341C
:10020000013430340134013400340000080001347A
:04021000FE34003484
:02400E00383F39
:00000001FF
