:020000040000FA
:0400000000001828BC
:08000800F200030E8301F10078
:100010000A088A01F000040883120317B000840064
:1000200070088A008301710E8300F20E720E0900BF
:100030002930FE000130FF00803000000000082160
:100040000000000083120317A1007F08A0002B30DE
:10005000A2000130A300831203172008A400210886
:10006000A500FF30A007031CA103240825040319E1
:10007000A82804302207A400A501A50D2308A50780
:100080002408FE002508FF00803000000000082141
:100090000000000083120317A7007F08A6002208B3
:1000A000FE002308FF00803000000000082100004F
:1000B000000083120317A900A5007F08A800A40070
:1000C00002302207A400A501A50D2308A5072408D6
:1000D000FE002508FF00803000000000082100001D
:1000E000000083120317A500AB007F08A400AA003C
:1000F000831203172608AA002708AB00FF30A607C3
:10010000031CA7032A082B040319A1282808FE00B2
:100110002908FF00803000000000F52000000000EA
:1001200083120317AA002408840083132518831759
:100130002A088000A80A0319A90AA40A0319A50A13
:100140007828063083120317A2070318A30A2B2866
:1001500000000000AC2808000730831203139F0042
:100160008B01831603138113831203138B138316DE
:1001700003131813981618121811831203139817E3
:1001800018131816193083160313990002308600CD
:10019000FF30850083120313051085108C12831223
:1001A00003138C1ECF281A088600050899008C12AC
:1001B000CF28080083120317AD01FF308312031705
:1001C0002D020318F428FF3083120317AE008312A8
:1001D0000317AE0300302E04031DE728FF30AE00E6
:1001E00083120317AD0ADD280800003A0319FC2822
:1001F000803A0319032900347E08840083137F1892
:100200008317000808007F088A007E088200080023
:10021000003A03191029803A03191A29FF01003402
:100220007E08840083137F1883170008FF00840A68
:1002300000080800000000000321FD00FE0FFF037E
:10024000FF0A000000000321FC007D08FF007C087D
:1002500008000134003431340134313401340134C4
:040260000034003432
:02400E000A3F67
:00000001FF
