:020000040000FA
:040000006BEF01F0B1
:06002A00060EC16EFF0E80
:10003000926E936A110E946E956AFC0E966E949869
:10004000828682888286828800000000000000008C
:10005000829800000000000000005A0E0001806F2E
:100060008296070E0001816FD880000181AFD89081
:10007000D8B05FEF00F080C000F0000181510BE0CC
:1000800006E6E86CD8900032010FFDE304D0D8906A
:100090000036010FFDE3010E00160050010BE83899
:1000A000F46E8250EF0BF410826E82860000000026
:1000B0000000000082960001810734EF00F0828882
:1000C00077EC01F0828677EC01F0829666EF00F023
:1000D0001200D9CFE5FFE1CFD9FF00C0E5FF01C095
:1000E000E5FF02C0E5FF03C0E5FF020EDBCF00F035
:1000F0008296016A080E015CD8B0A7EF00F001C03B
:1001000002F0036A02500708026E000E035600C098
:1001100002F002500BE006E6E86CD8900232010FC4
:10012000FDE304D0D8900236010FFDE3010E021664
:100130000250010BE838F46E8250EF0BF410826E1F
:10014000828677EC01F08296012A7AEF00F08288AD
:1001500077EC01F0828677EC01F08296E4CF03F031
:10016000E4CF02F0E4CF01F0E4CF00F0E4CFD9FF18
:100170001200180EF66E030EF76E000EF86E0900F0
:10018000F550056E0900F550066E04E1056702D0D2
:1001900008EF01F00900F550006E0900F550016EFE
:1001A0000900F550026E09000900F550E96E0900DA
:1001B000F550EA6E090009000900F550036E0900C8
:1001C000F550046E09000900F6CF07F0F7CF08F0EC
:1001D000F8CF09F000C0F6FF01C0F7FF02C0F8FF3A
:1001E000035002E1045009E00900F550EE6EF5CF2E
:1001F0007EFF0306F6E20406F7D707C0F6FF08C045
:10020000F7FF09C0F8FF050601E20606C5EF00F09A
:100210001200D9CFE5FFE1CFD9FF00C0E5FF01C053
:10022000E5FF02C0E5FF03C0E5FF04C0E5FF006A8B
:10023000829694888288016A080E015CD8B039EFF2
:1002400001F0828677EC01F0026A82B8022A01503E
:100250000708036E02C004F0035005E0E86CD89074
:100260000436010FFDE3045000128296012A1CEFB0
:1002700001F09498829877EC01F0828677EC01F097
:1002800082960050E4CF04F0E4CF03F0E4CF02F014
:10029000E4CF01F0E4CF00F0E4CFD9FF1200D9CFD2
:1002A000E5FFE1CFD9FF8286829877EC01F0828862
:1002B00077EC01F0E4CFD9FF1200D9CFE5FFE1CF11
:1002C000D9FF8286828877EC01F0829877EC01F082
:1002D000E4CFD9FF120012EEFFF022EEFFF0F86A31
:1002E000A68EA69CB9EC00F015EC00F0FFD7D9CF94
:1002F000E5FFE1CFD9FF0000000000000000E4CFDF
:10030000D9FF1200D9CFE5FFE1CFD9FF94988286BB
:100310008288E4CFD9FF120001002603000082008A
:080320000000010000000000D4
:020000040030CA
:0E000000FFFAFDFEFFFFFBFFFFFFFFFFFFFF0C
:00000001FF
