:020000040000FA
:04000000C7EF00F056
:0400080065EF00F0B0
:06002A00A60EF66E010EA9
:10003000F76E000EF86E0900F550056E0900F550D8
:10004000066E04E1056702D064EF00F00900F55088
:10005000006E0900F550016E0900F550026E0900AE
:100060000900F550E96E0900F550EA6E0900090033
:100070000900F550036E0900F550046E09000900EF
:10008000F6CF07F0F7CF08F0F8CF09F000C0F6FF81
:1000900001C0F7FF02C0F8FF035002E1045009E07D
:1000A0000900F550EE6EF5CF7EFF0306F6E204067A
:1000B000F7D707C0F6FF08C0F7FF09C0F8FF05062D
:1000C00001E2060621EF00F01200E8CFE5FFD8CFED
:1000D000E5FFE0CFE5FFF3CFE5FFF4CFE5FFE9CFA4
:1000E000E5FFEACFE5FFFACFE5FFFBCFE5FFD9CF8C
:1000F000E5FFE1CFD9FF0001800700018051D8A4BE
:1001000087EF00F0FF0E811A140E0001806F370E8A
:10011000D66EF294E4CFD9FFE4CFFBFFE4CFFAFF31
:10012000E4CFEAFFE4CFE9FFE4CFF4FFE4CFF3FF4D
:10013000E4CFE0FFE4CFD8FFE4CFE8FF1000F26A9D
:10014000FE0E926E936AD58ED58CD59AD596D584AF
:10015000D582D580370ED66E140E0001806FF294D2
:10016000FF0E816EF2A4B2EF00F0000180070001E3
:100170008051D8A4C1EF00F0FF0E811A140E0001C7
:10018000806F370ED66EF294B2EF00F0120012EECE
:10019000FFF022EEFFF0F86AA68EA69C15EC00F0A8
:1001A0009FEC00F0FFD70100B401000081000000C7
:0601B00001000000000048
:020000040030CA
:0E000000FFFAFDFEFFFFFBFFFFFFFFFFFFFF0C
:00000001FF
