:020000040000FA
:040000000000FC29D7
:06000A0083120317B3018D
:10001000831603138601063086000C3099001815EC
:10002000181283120313981783160313981683125A
:10003000031318164F30DD204B30DD200A30DD2051
:100040000D30DD2083120313861206138617061661
:100050000A30D0218312031306120A30D0218312F2
:10006000031306168617061786170A30D0210130AB
:10007000C3211130C3210330C3210A30D0212930DC
:10008000C3211330C3212130C321BA30C3213630FC
:10009000C321883038213A30C3210330382125303C
:1000A000C3213F3038212A30C3210030382183302A
:1000B00038212B30C32100303821833038212C30B7
:1000C000C321043083120317AE001130AF0000309B
:1000D000FE000030FF00FF30E120FF3083120317E5
:1000E000AE07031CAF032E082F04031D672804303E
:1000F000AE001130AF000030FE00FF30FF000030D6
:10010000E120FF3083120317AE07031CAF032E0854
:100110002F04031D7B280430AE001130AF00FF30E8
:10012000FE000030FF000030E120FF308312031793
:10013000AE07031CAF032E082F04031D8F280430C5
:10014000AE001130AF00FF30FE00FF30FF00FF3087
:10015000E120FF3083120317AE07031CAF032E0804
:100160002F04031DA3284630DD204930DD204D300B
:10017000DD200A30DD200D30DD20D720831203176B
:10018000B600D72083120317B700D72083120317B6
:10019000B8003808FE00831203173708FF008312E7
:1001A00003173608E1202E30DD20BD280800831219
:1001B00003138C1ED7281A08080083120313990012
:1001C000080083120317B6007F0883120317B700D5
:1001D0007E0883120317B80000308312031733041C
:1001E000031D1029F03083120317360583120317FD
:1001F000AC0083120317370E0F3983120317AD00BB
:100200002C0483120317B400F0308312031738054F
:1002100083120317B500013083120317B300372987
:1002200083120317B3018312031734083821831292
:100230000317360E0F3983120317AC00831203170E
:10024000350883120317AC042C083821F0308312D0
:100250000317370583120317AC0083120317380EF8
:100260000F3983120317AD00AC042C0838210800A5
:1002700083120317AC008312031386130617861725
:10028000831203172C084521080083120317AD00C1
:1002900083120313861383120317AD1F532983128E
:1002A000031306175629831203130613831203132D
:1002B00086178613831203172D1F622983120313D7
:1002C0000617652983120313061383120313861777
:1002D000861383120317AD1E7129831203130617A9
:1002E00074298312031306138312031386178613CC
:1002F000831203172D1E80298312031306178329E7
:1003000083120313061383120313861786138312B3
:100310000317AD1D8F298312031306179229831229
:10032000031306138312031386178613831203170E
:100330002D1D9E29831203130617A129831203136F
:100340000613831203138617861383120317AD1C3B
:10035000AD29831203130617B02983120313061362
:100360008312031386178613831203172D1CBC29CF
:10037000831203130617BF29831203130613831274
:1003800003138617080083120317AC0083120313AC
:10039000861306138617831203172C0845210800BD
:1003A00083120317AC0083120317B00183120317E3
:1003B0002C088312031730020318FB29831203173A
:1003C000B101FF308312031731020318F7290430FB
:1003D00083120317B20083120317B2033208031DFE
:1003E000EB290430B20083120317B10AE12983120A
:1003F0000317B00AD6290800C430FE000230FF00FF
:10040000803000000000A3220000000083120317C8
:10041000A1007F08A000C630A2000230A300831212
:1004200003172008A4002108A500FF30A007031C23
:10043000A1032408250403198C2A04302207A400F0
:10044000A501A50D2308A5072408FE002508FF0027
:10045000803000000000A322000000008312031778
:10046000A7007F08A6002208FE002308FF008030B6
:1004700000000000A3220000000083120317A9005F
:10048000A5007F08A800A40002302207A400A5014F
:10049000A50D2308A5072408FE002508FF008030CD
:1004A00000000000A3220000000083120317A50033
:1004B000AB007F08A400AA00831203172608AA0035
:1004C0002708AB00FF30A607031CA7032A082B044C
:1004D0000319852A2808FE002908FF008030000043
:1004E000000090220000000083120317AA002408D5
:1004F00084008313251883172A088000A80A03198B
:10050000A90AA40A0319A50A5C2A06308312031754
:10051000A2070318A30A0F2A0000000005280800FC
:10052000003A0319972A803A03199E2A00347E085C
:10053000840083137F188317000808007F088A004F
:100540007E0882000800003A0319AB2A803A03199A
:10055000B52AFF0100347E08840083137F188317B7
:100560000008FF00840A00080800000000009E2226
:10057000FD00FE0FFF03FF0A000000009E22FC00AA
:100580007D08FF007C08080001340034CC340234BC
:0A0590003934013401340034003422
:02400E00503F21
:00000001FF
