:020000040000FA
:0400000000002F28A5
:08000800F200030E8301F10078
:100010000A088A01F000040883120317AD00831256
:100020000317AC0300302C04031D1E28FF3083127D
:1000300003138606143083120317AC003730831283
:10004000031381000B11831203172D08840070081D
:100050008A008301710E8300F20E720E09001730C0
:10006000FE000130FF00803000000000D6200000BC
:10007000000083120317A1007F08A0001930A2001E
:100080000130A300831203172008A4002108A50053
:10009000FF30A007031CA103240825040319BF286F
:1000A00004302207A400A501A50D2308A5072408F4
:1000B000FE002508FF00803000000000D620000070
:1000C000000083120317A7007F08A6002208FE0085
:1000D0002308FF00803000000000D6200000000050
:1000E00083120317A900A5007F08A800A40002300E
:1000F0002207A400A501A50D2308A5072408FE00DA
:100100002508FF00803000000000D620000000001D
:1001100083120317A500AB007F08A400AA00831276
:1001200003172608AA002708AB00FF30A607031C08
:10013000A7032A082B040319B8282808FE00290859
:10014000FF00803000000000C32000000000831288
:100150000317AA00240884008313251883172A088C
:100160008000A80A0319A90AA40A0319A50A8F285E
:10017000063083120317A2070318A30A42280000BF
:100180000000F7280800003A0319CA28803A03192A
:10019000D12800347E08840083137F188317000859
:1001A00008007F088A007E0882000800003A0319D0
:1001B000DE28803A0319E828FF0100347E08840015
:1001C00083137F1883170008FF00840A00080800C3
:1001D00000000000D120FD00FE0FFF03FF0A000019
:1001E0000000D120FC007D08FF007C08080083127D
:1001F00003138B0107309F00FE3083160313850025
:100200008601811281110115811401143730831286
:1002100003138100143083120317AC0083120313FD
:100220008B178B160B11FF3086001529080001343F
:1002300000341F3401342E340134013400340034CE
:02400E00383F39
:00000001FF
