:020000040000FA
:10000000D1EF01F0D9CFE5FFE1CFD9FF00C0E5FF87
:1000100001C0E5FF02C0E5FF03C0E5FF04C0E5FF46
:1000200005C0E5FF06C0E5FF07C0E5FF08C0E5FF26
:10003000020EDBCF00F0030EDBCF01F0040EDBCFAE
:1000400002F0036A046A010E0114056E0550046E85
:10005000056A0050056E066A066AC3EC01F004509A
:1000600006E0A20EE56E51EC01F0E12A05D0A00EEB
:10007000E56E51EC01F0E12A0550E56E51EC01F01E
:10008000E12A0250076E0750E56E51EC01F0E12ABB
:10009000B5EC01F0062A0150E56E0050E56E73ECF8
:1000A00000F0076E020EE126086A0250071803E10D
:1000B0000350081803E00A0E065CCFE3E4CF08F013
:1000C000E4CF07F0E4CF06F0E4CF05F0E4CF04F08E
:1000D000E4CF03F0E4CF02F0E4CF01F0E4CF00F08E
:1000E000E4CFD9FF1200D9CFE5FFE1CFD9FF00C09F
:1000F000E5FF01C0E5FF02C0E5FF03C0E5FF020E1A
:10010000DBCF00F0030EDBCF01F0026A010E011419
:10011000036E0350026E036A016AC3EC01F00250E1
:1001200006E0A20EE56E51EC01F0E12A05D0A00E2A
:10013000E56E51EC01F0E12A0050E56E51EC01F062
:10014000E12AC3EC01F0025006E0A30EE56E51EC8B
:1001500001F0E12A05D0A10EE56E51EC01F0E12A93
:100160000DEC01F0006EB5EC01F00050E4CF03F0AF
:10017000E4CF02F0E4CF01F0E4CF00F0E4CFD9FF08
:100180001200E40EF66E030EF76E000EF86E090014
:10019000F550056E0900F550066E055002E1065057
:1001A0003BE00900F550006E0900F550016E0900B2
:1001B000F550026E09000900F550E96E0900F5508E
:1001C000EA6E090009000900F550036E0900F550B8
:1001D000046E09000900F6CF07F0F7CF08F0F8CF5A
:1001E00009F000C0F6FF01C0F7FF02C0F8FF03509E
:1001F00002E1045007E00900F550EE6E0306F8E254
:100200000406F9D707C0F6FF08C0F7FF09C0F8FFDA
:100210000506C4E20606C5D71200D9CFE5FFE1CF37
:10022000D9FF00C0E5FF01C0E5FF02C0E5FF03C044
:10023000E5FF006A829694888288070E016ED88056
:1002400001AED8901AE28286DDEC01F0026A82B833
:10025000022A02C003F001500BE006E6E86CD890D9
:100260000336010FFDE304D0D8900332010FFDE304
:100270000350001282960106E2D794988298DDEC32
:1002800001F08286DDEC01F082960050E4CF03F0AD
:10029000E4CF02F0E4CF01F0E4CF00F0E4CFD9FFE7
:1002A0001200D9CFE5FFE1CFD9FF00C0E5FF01C0C3
:1002B000E5FF02C0E5FF020EDBCF00F08296070EDD
:1002C000016ED88001AED8901FE200C002F001504C
:1002D0000BE006E6E86CD8900232010FFDE304D093
:1002E000D8900236010FFDE3010E02160250010BF9
:1002F000E838F46E8250EF0BF410826E8286DDECEB
:1003000001F082960106DDD78288DDEC01F082865D
:10031000DDEC01F08296E4CF02F0E4CF01F0E4CF0F
:1003200000F0E4CFD9FF1200040EC16EFF0E926EF2
:10033000936A010E946E956AFC0E966EE8EC01F0DD
:10034000A50EE56E010EE56E450EE56E02EC00F0C1
:10035000030EE126010EE56E450EE56E73EC00F02E
:10036000816E020EE126FFD71200D9CFE5FFE1CF63
:10037000D9FF82868298DDEC01F08288DDEC01F005
:10038000E4CFD9FF1200D9CFE5FFE1CFD9FF8286B4
:100390008288DDEC01F08298DDEC01F0E4CFD9FF3A
:1003A000120011EEFFF021EEFFF0F86AA68EA69C77
:1003B000C1EC00F094EC01F0FFD7D9CFE5FFE1CF1D
:1003C000D9FF0000000000000000E4CFD9FF1200B8
:1003D000D9CFE5FFE1CFD9FF949882868288E4CF18
:1003E000D9FF12000100F2030000800000000100AC
:0403F0000000000009
:020000040030CA
:0E000000FFFAFDFEFFFFFAFFFFFFFFFFFFFF0D
:00000001FF
